{"abi":[{"type":"function","name":"UPGRADE_INTERFACE_VERSION","inputs":[],"outputs":[{"name":"","type":"string","internalType":"string"}],"stateMutability":"view"},{"type":"function","name":"allTokens","inputs":[{"name":"","type":"uint256","internalType":"uint256"}],"outputs":[{"name":"","type":"address","internalType":"address"}],"stateMutability":"view"},{"type":"function","name":"allTokensLength","inputs":[],"outputs":[{"name":"","type":"uint256","internalType":"uint256"}],"stateMutability":"view"},{"type":"function","name":"assetToken","inputs":[],"outputs":[{"name":"","type":"address","internalType":"address"}],"stateMutability":"view"},{"type":"function","name":"bcPairFactory","inputs":[],"outputs":[{"name":"","type":"address","internalType":"address"}],"stateMutability":"view"},{"type":"function","name":"bcRouter","inputs":[],"outputs":[{"name":"","type":"address","internalType":"address"}],"stateMutability":"view"},{"type":"function","name":"buyGPToken","inputs":[{"name":"token","type":"address","internalType":"address"},{"name":"assetAmountIn","type":"uint256","internalType":"uint256"},{"name":"to","type":"address","internalType":"address"},{"name":"minTokensOut","type":"uint256","internalType":"uint256"}],"outputs":[{"name":"tokensOut","type":"uint256","internalType":"uint256"}],"stateMutability":"nonpayable"},{"type":"function","name":"createGPToken","inputs":[{"name":"name","type":"string","internalType":"string"},{"name":"symbol","type":"string","internalType":"string"},{"name":"totalSupply","type":"uint256","internalType":"uint256"},{"name":"_buckets","type":"tuple[]","internalType":"struct GradPadToken.Bucket[]","components":[{"name":"name","type":"string","internalType":"string"},{"name":"basisPoints","type":"uint256","internalType":"uint256"},{"name":"recipient","type":"address","internalType":"address"},{"name":"cliff","type":"uint256","internalType":"uint256"},{"name":"vestingDuration","type":"uint256","internalType":"uint256"},{"name":"isLiquidity","type":"bool","internalType":"bool"}]},{"name":"graduationThreshold_","type":"uint256","internalType":"uint256"},{"name":"virtualAssetReserve_","type":"uint256","internalType":"uint256"},{"name":"salt","type":"bytes32","internalType":"bytes32"}],"outputs":[{"name":"token","type":"address","internalType":"address"}],"stateMutability":"nonpayable"},{"type":"function","name":"feeRecipient","inputs":[],"outputs":[{"name":"","type":"address","internalType":"address"}],"stateMutability":"view"},{"type":"function","name":"getAssetOut","inputs":[{"name":"token","type":"address","internalType":"address"},{"name":"tokenIn","type":"uint256","internalType":"uint256"}],"outputs":[{"name":"","type":"uint256","internalType":"uint256"}],"stateMutability":"view"},{"type":"function","name":"getPrice","inputs":[{"name":"token","type":"address","internalType":"address"}],"outputs":[{"name":"","type":"uint256","internalType":"uint256"}],"stateMutability":"view"},{"type":"function","name":"getPriceWAD","inputs":[{"name":"token","type":"address","internalType":"address"}],"outputs":[{"name":"","type":"uint256","internalType":"uint256"}],"stateMutability":"view"},{"type":"function","name":"getTokensOut","inputs":[{"name":"token","type":"address","internalType":"address"},{"name":"assetIn","type":"uint256","internalType":"uint256"}],"outputs":[{"name":"","type":"uint256","internalType":"uint256"}],"stateMutability":"view"},{"type":"function","name":"graduateGPToken","inputs":[{"name":"token","type":"address","internalType":"address"}],"outputs":[],"stateMutability":"nonpayable"},{"type":"function","name":"graduationThreshold","inputs":[{"name":"","type":"address","internalType":"address"}],"outputs":[{"name":"","type":"uint256","internalType":"uint256"}],"stateMutability":"view"},{"type":"function","name":"initialize","inputs":[{"name":"tokenImpl_","type":"address","internalType":"address"},{"name":"bcRouter_","type":"address","internalType":"address"},{"name":"bcPairFactory_","type":"address","internalType":"address"},{"name":"uniswapV2Factory_","type":"address","internalType":"address"},{"name":"uniswapV2Router_","type":"address","internalType":"address"},{"name":"assetToken_","type":"address","internalType":"address"},{"name":"owner_","type":"address","internalType":"address"}],"outputs":[],"stateMutability":"nonpayable"},{"type":"function","name":"initializeV2","inputs":[{"name":"initialFeePercent","type":"uint256","internalType":"uint256"},{"name":"initialFeeRecipient","type":"address","internalType":"address"}],"outputs":[],"stateMutability":"nonpayable"},{"type":"function","name":"owner","inputs":[],"outputs":[{"name":"","type":"address","internalType":"address"}],"stateMutability":"view"},{"type":"function","name":"platformFeePercent","inputs":[],"outputs":[{"name":"","type":"uint256","internalType":"uint256"}],"stateMutability":"view"},{"type":"function","name":"proxiableUUID","inputs":[],"outputs":[{"name":"","type":"bytes32","internalType":"bytes32"}],"stateMutability":"view"},{"type":"function","name":"sellGPToken","inputs":[{"name":"token","type":"address","internalType":"address"},{"name":"tokenAmountIn","type":"uint256","internalType":"uint256"},{"name":"to","type":"address","internalType":"address"},{"name":"minAssetOut","type":"uint256","internalType":"uint256"}],"outputs":[{"name":"assetOut","type":"uint256","internalType":"uint256"}],"stateMutability":"nonpayable"},{"type":"function","name":"sellGPTokenWithPermit","inputs":[{"name":"token","type":"address","internalType":"address"},{"name":"tokenAmountIn","type":"uint256","internalType":"uint256"},{"name":"to","type":"address","internalType":"address"},{"name":"minAssetOut","type":"uint256","internalType":"uint256"},{"name":"deadline","type":"uint256","internalType":"uint256"},{"name":"v","type":"uint8","internalType":"uint8"},{"name":"r","type":"bytes32","internalType":"bytes32"},{"name":"s","type":"bytes32","internalType":"bytes32"}],"outputs":[{"name":"assetOut","type":"uint256","internalType":"uint256"}],"stateMutability":"nonpayable"},{"type":"function","name":"setFeeRecipient","inputs":[{"name":"newRecipient","type":"address","internalType":"address"}],"outputs":[],"stateMutability":"nonpayable"},{"type":"function","name":"setPlatformFeePercent","inputs":[{"name":"newFee","type":"uint256","internalType":"uint256"}],"outputs":[],"stateMutability":"nonpayable"},{"type":"function","name":"tokenImplementation","inputs":[],"outputs":[{"name":"","type":"address","internalType":"address"}],"stateMutability":"view"},{"type":"function","name":"tokenToPair","inputs":[{"name":"","type":"address","internalType":"address"}],"outputs":[{"name":"","type":"address","internalType":"address"}],"stateMutability":"view"},{"type":"function","name":"transferOwnership","inputs":[{"name":"newOwner","type":"address","internalType":"address"}],"outputs":[],"stateMutability":"nonpayable"},{"type":"function","name":"uniswapV2Factory","inputs":[],"outputs":[{"name":"","type":"address","internalType":"address"}],"stateMutability":"view"},{"type":"function","name":"uniswapV2Router","inputs":[],"outputs":[{"name":"","type":"address","internalType":"address"}],"stateMutability":"view"},{"type":"function","name":"upgradeToAndCall","inputs":[{"name":"newImplementation","type":"address","internalType":"address"},{"name":"data","type":"bytes","internalType":"bytes"}],"outputs":[],"stateMutability":"payable"},{"type":"function","name":"version","inputs":[],"outputs":[{"name":"","type":"string","internalType":"string"}],"stateMutability":"pure"},{"type":"function","name":"virtualAssetReserve","inputs":[{"name":"","type":"address","internalType":"address"}],"outputs":[{"name":"","type":"uint256","internalType":"uint256"}],"stateMutability":"view"},{"type":"event","name":"BucketAdded","inputs":[{"name":"token","type":"address","indexed":true,"internalType":"address"},{"name":"bucketIndex","type":"uint256","indexed":true,"internalType":"uint256"},{"name":"name","type":"string","indexed":false,"internalType":"string"},{"name":"basisPoints","type":"uint256","indexed":false,"internalType":"uint256"},{"name":"recipient","type":"address","indexed":false,"internalType":"address"},{"name":"cliff","type":"uint256","indexed":false,"internalType":"uint256"},{"name":"vestingDuration","type":"uint256","indexed":false,"internalType":"uint256"},{"name":"isLiquidity","type":"bool","indexed":false,"internalType":"bool"}],"anonymous":false},{"type":"event","name":"FeeCollected","inputs":[{"name":"token","type":"address","indexed":true,"internalType":"address"},{"name":"buyer","type":"address","indexed":true,"internalType":"address"},{"name":"feeAmount","type":"uint256","indexed":false,"internalType":"uint256"}],"anonymous":false},{"type":"event","name":"GPTokenBought","inputs":[{"name":"token","type":"address","indexed":true,"internalType":"address"},{"name":"buyer","type":"address","indexed":true,"internalType":"address"},{"name":"assetIn","type":"uint256","indexed":false,"internalType":"uint256"},{"name":"tokensOut","type":"uint256","indexed":false,"internalType":"uint256"}],"anonymous":false},{"type":"event","name":"GPTokenCreated","inputs":[{"name":"token","type":"address","indexed":true,"internalType":"address"},{"name":"creator","type":"address","indexed":true,"internalType":"address"},{"name":"name","type":"string","indexed":false,"internalType":"string"},{"name":"symbol","type":"string","indexed":false,"internalType":"string"},{"name":"totalSupply","type":"uint256","indexed":false,"internalType":"uint256"}],"anonymous":false},{"type":"event","name":"GPTokenGraduated","inputs":[{"name":"token","type":"address","indexed":true,"internalType":"address"},{"name":"uniswapPair","type":"address","indexed":true,"internalType":"address"},{"name":"timestamp","type":"uint256","indexed":false,"internalType":"uint256"}],"anonymous":false},{"type":"event","name":"GPTokenSold","inputs":[{"name":"token","type":"address","indexed":true,"internalType":"address"},{"name":"seller","type":"address","indexed":true,"internalType":"address"},{"name":"tokensIn","type":"uint256","indexed":false,"internalType":"uint256"},{"name":"assetOut","type":"uint256","indexed":false,"internalType":"uint256"}],"anonymous":false},{"type":"event","name":"Initialized","inputs":[{"name":"version","type":"uint64","indexed":false,"internalType":"uint64"}],"anonymous":false},{"type":"event","name":"OwnershipTransferred","inputs":[{"name":"previousOwner","type":"address","indexed":true,"internalType":"address"},{"name":"newOwner","type":"address","indexed":true,"internalType":"address"}],"anonymous":false},{"type":"event","name":"Upgraded","inputs":[{"name":"implementation","type":"address","indexed":true,"internalType":"address"}],"anonymous":false},{"type":"error","name":"AddressEmptyCode","inputs":[{"name":"target","type":"address","internalType":"address"}]},{"type":"error","name":"AddressInsufficientBalance","inputs":[{"name":"account","type":"address","internalType":"address"}]},{"type":"error","name":"AlreadyGraduated","inputs":[]},{"type":"error","name":"CloneDeploymentFailed","inputs":[]},{"type":"error","name":"ERC1967InvalidImplementation","inputs":[{"name":"implementation","type":"address","internalType":"address"}]},{"type":"error","name":"ERC1967NonPayable","inputs":[]},{"type":"error","name":"FailedInnerCall","inputs":[]},{"type":"error","name":"FeeTooHigh","inputs":[]},{"type":"error","name":"InvalidInitialization","inputs":[]},{"type":"error","name":"NotInBondingPhase","inputs":[]},{"type":"error","name":"NotInitializing","inputs":[]},{"type":"error","name":"NotOwner","inputs":[]},{"type":"error","name":"PairNotFound","inputs":[]},{"type":"error","name":"ReentrantCall","inputs":[]},{"type":"error","name":"SafeERC20FailedOperation","inputs":[{"name":"token","type":"address","internalType":"address"}]},{"type":"error","name":"ThresholdNotMet","inputs":[]},{"type":"error","name":"TokenNotRegistered","inputs":[]},{"type":"error","name":"UUPSUnauthorizedCallContext","inputs":[]},{"type":"error","name":"UUPSUnsupportedProxiableUUID","inputs":[{"name":"slot","type":"bytes32","internalType":"bytes32"}]},{"type":"error","name":"ZeroAddress","inputs":[]},{"type":"error","name":"ZeroFeeRecipient","inputs":[]}],"bytecode":{"object":"0x60a060405230608052348015610013575f80fd5b5061001c610021565b6100d3565b7ff0c57e16840df040f15088dc2f81fe391c3923bec73e23a9662efc9c229c6a00805468010000000000000000900460ff16156100715760405163f92ee8a960e01b815260040160405180910390fd5b80546001600160401b03908116146100d05780546001600160401b0319166001600160401b0390811782556040519081527fc7f505b2f371ae2175ee4913f4499e1f2633a7b5936321eed1cdaeb6115181d29060200160405180910390a15b50565b608051612af06100f95f395f8181611bd901528181611c020152611d6b0152612af05ff3fe6080604052600436106101db575f3560e01c806359d0f713116100fd578063ad3cb1cc11610092578063dbb80e4211610062578063dbb80e421461059e578063e74b981b146105b2578063efb3c1a7146105d1578063f2fde38b146105f0575f80fd5b8063ad3cb1cc14610505578063b3590b3614610535578063b7b8109414610554578063cab230d21461057f575f80fd5b806372eaeb96116100cd57806372eaeb96146104745780638a047d5e1461049f5780638c639a85146104d35780638da5cb5b146104e8575f80fd5b806359d0f713146103f8578063634282af1461041757806363737818146104365780636d04f2a714610455575f80fd5b806335876476116101735780634690484011610143578063469048401461037f5780634f1ef2861461039e57806352d1902d146103b157806354fd4d50146103c5575f80fd5b8063358764761461030357806338447bbf1461032257806341976e09146103415780634530097314610360575f80fd5b80631c4dde4d116101ae5780631c4dde4d146102865780632490fe36146102a55780632f3a3d5d146102c65780632fef2226146102e4575f80fd5b806301c57b1a146101df5780631083f761146102115780631694505e1461024857806318da245514610267575b5f80fd5b3480156101ea575f80fd5b506101fe6101f9366004612301565b61060f565b6040519081526020015b60405180910390f35b34801561021c575f80fd5b50600554610230906001600160a01b031681565b6040516001600160a01b039091168152602001610208565b348015610253575f80fd5b50600454610230906001600160a01b031681565b348015610272575f80fd5b50600154610230906001600160a01b031681565b348015610291575f80fd5b506101fe6102a036600461231c565b610690565b3480156102b0575f80fd5b506102c46102bf366004612396565b61072a565b005b3480156102d1575f80fd5b505f54610230906001600160a01b031681565b3480156102ef575f80fd5b506101fe6102fe3660046123c4565b61086c565b34801561030e575f80fd5b506102c461031d366004612409565b610a7a565b34801561032d575f80fd5b506101fe61033c36600461249a565b610cc0565b34801561034c575f80fd5b506101fe61035b366004612301565b610d49565b34801561036b575f80fd5b506101fe61037a3660046123c4565b610d89565b34801561038a575f80fd5b50600c54610230906001600160a01b031681565b6102c46103ac3660046124d8565b6110d9565b3480156103bc575f80fd5b506101fe6110f8565b3480156103d0575f80fd5b506040805180820190915260028152612b1960f11b60208201525b6040516102089190612596565b348015610403575f80fd5b50600354610230906001600160a01b031681565b348015610422575f80fd5b506102306104313660046125cb565b611113565b348015610441575f80fd5b50610230610450366004612627565b61113b565b348015610460575f80fd5b506101fe61046f36600461249a565b611424565b34801561047f575f80fd5b506101fe61048e366004612301565b60086020525f908152604090205481565b3480156104aa575f80fd5b506102306104b9366004612301565b60076020525f90815260409020546001600160a01b031681565b3480156104de575f80fd5b506101fe600b5481565b3480156104f3575f80fd5b506006546001600160a01b0316610230565b348015610510575f80fd5b506103eb604051806040016040528060058152602001640352e302e360dc1b81525081565b348015610540575f80fd5b506102c461054f366004612301565b61146b565b34801561055f575f80fd5b506101fe61056e366004612301565b60096020525f908152604090205481565b34801561058a575f80fd5b506102c46105993660046125cb565b6115cb565b3480156105a9575f80fd5b50600a546101fe565b3480156105bd575f80fd5b506102c46105cc366004612301565b61161e565b3480156105dc575f80fd5b50600254610230906001600160a01b031681565b3480156105fb575f80fd5b506102c461060a366004612301565b611692565b600154600554604051637fbab7dd60e01b81526001600160a01b03848116600483015291821660248201525f929190911690637fbab7dd906044015b602060405180830381865afa158015610666573d5f803e3d5ffd5b505050506040513d601f19601f8201168201806040525081019061068a919061270b565b92915050565b60405163d505accf60e01b8152336004820152306024820152604481018890526064810185905260ff8416608482015260a4810183905260c481018290525f906001600160a01b038a169063d505accf9060e4015f604051808303815f87803b1580156106fb575f80fd5b505af115801561070d573d5f803e3d5ffd5b5050505061071d8989898961086c565b9998505050505050505050565b7ff0c57e16840df040f15088dc2f81fe391c3923bec73e23a9662efc9c229c6a00805460029190600160401b900460ff16806107745750805467ffffffffffffffff808416911610155b156107925760405163f92ee8a960e01b815260040160405180910390fd5b805468ffffffffffffffffff191667ffffffffffffffff831617600160401b1781556101f48411156107d75760405163cd4e616760e01b815260040160405180910390fd5b6001600160a01b0383166107fe576040516333fe7c6560e21b815260040160405180910390fd5b600b849055600c80546001600160a01b0319166001600160a01b038516179055805460ff60401b1916815560405167ffffffffffffffff831681527fc7f505b2f371ae2175ee4913f4499e1f2633a7b5936321eed1cdaeb6115181d29060200160405180910390a150505050565b6006545f90600160a01b900460ff1615610899576040516306fda65d60e31b815260040160405180910390fd5b6006805460ff60a01b1916600160a01b1790556001600160a01b038581165f90815260076020526040902054166108e35760405163259ba1ad60e01b815260040160405180910390fd5b846001600160a01b031663094043e86040518163ffffffff1660e01b8152600401602060405180830381865afa15801561091f573d5f803e3d5ffd5b505050506040513d601f19601f82011682018060405250810190610943919061272f565b610960576040516349b4ce4f60e01b815260040160405180910390fd5b6109756001600160a01b03861633308761173f565b60015461098f906001600160a01b038781169116866117ac565b60015460055460405163655450f560e01b81526001600160a01b03888116600483015291821660248201526044810187905285821660648201526084810185905291169063655450f59060a4016020604051808303815f875af11580156109f8573d5f803e3d5ffd5b505050506040513d601f19601f82011682018060405250810190610a1c919061270b565b604080518681526020810183905291925033916001600160a01b038816917f3661b08be976ae30b00066cac1dccc81f4bce90a02a49ad772cf95b08f029082910160405180910390a36006805460ff60a01b19169055949350505050565b7ff0c57e16840df040f15088dc2f81fe391c3923bec73e23a9662efc9c229c6a008054600160401b810460ff16159067ffffffffffffffff165f81158015610abf5750825b90505f8267ffffffffffffffff166001148015610adb5750303b155b905081158015610ae9575080155b15610b075760405163f92ee8a960e01b815260040160405180910390fd5b845467ffffffffffffffff191660011785558315610b3157845460ff60401b1916600160401b1785555b6001600160a01b038c161580610b4e57506001600160a01b038b16155b80610b6057506001600160a01b038a16155b80610b7257506001600160a01b038916155b80610b8457506001600160a01b038816155b80610b9657506001600160a01b038716155b80610ba857506001600160a01b038616155b15610bc65760405163d92e233d60e01b815260040160405180910390fd5b5f80546001600160a01b03199081166001600160a01b038f81169190911783556001805483168f83161790556002805483168e83161790556003805483168d83161790556004805483168c8316179055600580549092168a82161790915560405190881691907f8be0079c531659141344cd1fd0a4f28419497f9722a3daafe3b4186f6b6457e0908290a3600680546001600160a01b0319166001600160a01b0388161790558315610cb257845460ff60401b19168555604051600181527fc7f505b2f371ae2175ee4913f4499e1f2633a7b5936321eed1cdaeb6115181d29060200160405180910390a15b505050505050505050505050565b6001546005546040516334b1b9e360e21b81526001600160a01b0385811660048301529182166024820152604481018490525f92919091169063d2c6e78c906064015b602060405180830381865afa158015610d1e573d5f803e3d5ffd5b505050506040513d601f19601f82011682018060405250810190610d42919061270b565b9392505050565b600154600554604051635620c32d60e11b81526001600160a01b03848116600483015291821660248201525f92919091169063ac41865a9060440161064b565b6006545f90600160a01b900460ff1615610db6576040516306fda65d60e31b815260040160405180910390fd5b6006805460ff60a01b1916600160a01b1790556001600160a01b038581165f9081526007602052604090205416610e005760405163259ba1ad60e01b815260040160405180910390fd5b846001600160a01b031663094043e86040518163ffffffff1660e01b8152600401602060405180830381865afa158015610e3c573d5f803e3d5ffd5b505050506040513d601f19601f82011682018060405250810190610e60919061272f565b610e7d576040516349b4ce4f60e01b815260040160405180910390fd5b600554610e95906001600160a01b031633308761173f565b5f612710600b5486610ea7919061275e565b610eb19190612775565b90505f610ebe8287612794565b90508115610f3157600c54600554610ee3916001600160a01b0391821691168461183b565b846001600160a01b0316876001600160a01b03167ff228de527fc1b9843baac03b9a04565473a263375950e63435d4138464386f4684604051610f2891815260200190565b60405180910390a35b600154600554610f4e916001600160a01b039182169116836117ac565b6001546005546040516333bb3fa760e11b81526001600160a01b038a811660048301529182166024820152604481018490528782166064820152608481018790529116906367767f4e9060a4016020604051808303815f875af1158015610fb7573d5f803e3d5ffd5b505050506040513d601f19601f82011682018060405250810190610fdb919061270b565b9250846001600160a01b0316876001600160a01b03167f48faf95e3c0614df62bd7451cfbb6668109270f59434ec9d5703f322b209949b838660405161102b929190918252602082015260400190565b60405180910390a36001600160a01b038088165f90815260086020908152604080832054600783529281902054815163c66f245560e01b815291519394169263c66f2455926004808401939192918290030181865afa158015611090573d5f803e3d5ffd5b505050506040513d601f19601f820116820180604052508101906110b4919061270b565b106110c2576110c287611871565b50506006805460ff60a01b19169055949350505050565b6110e1611bce565b6110ea82611c74565b6110f48282611c9f565b5050565b5f611101611d60565b505f80516020612a9b83398151915290565b600a8181548110611122575f80fd5b5f918252602090912001546001600160a01b0316905081565b5f8054611151906001600160a01b031683611da9565b604051636ddf4c5760e11b81529091506001600160a01b0382169063dbbe98ae9061118e908e908e908e908e908e908e908e9030906004016127da565b5f604051808303815f87803b1580156111a5575f80fd5b505af11580156111b7573d5f803e3d5ffd5b50506002546005546040516364e329cb60e11b81526001600160a01b03868116600483015291821660248201525f94509116915063c9c65396906044016020604051808303815f875af1158015611210573d5f803e3d5ffd5b505050506040513d601f19601f82011682018060405250810190611234919061291a565b6001600160a01b038084165f81815260076020908152604080832080549587166001600160a01b0319968716179055600882528083208b905560099091528120889055600a80546001810182559082527fc65a7bb8d6351c1cf70c95a316cc6a92839c986682d98bc35f958f4883f9d2a80180549093169091179091559091506112bf898989611e18565b604051639dc5fb7360e01b81523060048201529091506001600160a01b03841690639dc5fb73906024015f604051808303815f87803b158015611300575f80fd5b505af1158015611312573d5f803e3d5ffd5b505060015461133092506001600160a01b03868116925016836117ac565b600154600554604051632530088360e01b81526001600160a01b038681166004830152918216602482015260448101849052606481018890529116906325300883906084016020604051808303815f875af1158015611391573d5f803e3d5ffd5b505050506040513d601f19601f820116820180604052508101906113b5919061272f565b50336001600160a01b0316836001600160a01b03167fe8041a7d7ccedd17322f7dd544a0491297c5c253dec37dce1b1c91bf079171528f8f8f8f8f604051611401959493929190612935565b60405180910390a3611414838989611eb6565b50509a9950505050505050505050565b6001546005546040516392ea130360e01b81526001600160a01b0385811660048301529182166024820152604481018490525f9291909116906392ea130390606401610d03565b6001600160a01b038181165f90815260076020526040902054166114a25760405163d719ab6960e01b815260040160405180910390fd5b806001600160a01b031663094043e86040518163ffffffff1660e01b8152600401602060405180830381865afa1580156114de573d5f803e3d5ffd5b505050506040513d601f19601f82011682018060405250810190611502919061272f565b61151f5760405163e6a0d45f60e01b815260040160405180910390fd5b6001600160a01b038082165f90815260086020908152604080832054600783529281902054815163c66f245560e01b815291519394169263c66f2455926004808401939192918290030181865afa15801561157c573d5f803e3d5ffd5b505050506040513d601f19601f820116820180604052508101906115a0919061270b565b10156115bf576040516359fa4a9360e01b815260040160405180910390fd5b6115c881611871565b50565b6006546001600160a01b031633146115f6576040516330cd747160e01b815260040160405180910390fd5b6101f48111156116195760405163cd4e616760e01b815260040160405180910390fd5b600b55565b6006546001600160a01b03163314611649576040516330cd747160e01b815260040160405180910390fd5b6001600160a01b038116611670576040516333fe7c6560e21b815260040160405180910390fd5b600c80546001600160a01b0319166001600160a01b0392909216919091179055565b6006546001600160a01b031633146116bd576040516330cd747160e01b815260040160405180910390fd5b6001600160a01b0381166116e45760405163d92e233d60e01b815260040160405180910390fd5b6006546040516001600160a01b038084169216907f8be0079c531659141344cd1fd0a4f28419497f9722a3daafe3b4186f6b6457e0905f90a3600680546001600160a01b0319166001600160a01b0392909216919091179055565b6040516001600160a01b0384811660248301528381166044830152606482018390526117a69186918216906323b872dd906084015b604051602081830303815290604052915060e01b6020820180516001600160e01b038381831617835250505050611f70565b50505050565b604080516001600160a01b038416602482015260448082018490528251808303909101815260649091019091526020810180516001600160e01b031663095ea7b360e01b1790526117fd8482611fd1565b6117a6576040516001600160a01b0384811660248301525f604483015261183191869182169063095ea7b390606401611774565b6117a68482611f70565b6040516001600160a01b0383811660248301526044820183905261186c91859182169063a9059cbb90606401611774565b505050565b600154600554604051630a33afb760e41b81526001600160a01b038481166004830152918216602482015291169063a33afb70906044015f604051808303815f87803b1580156118bf575f80fd5b505af11580156118d1573d5f803e3d5ffd5b50506040516370a0823160e01b81523060048201525f92506001600160a01b03841691506370a0823190602401602060405180830381865afa158015611919573d5f803e3d5ffd5b505050506040513d601f19601f8201168201806040525081019061193d919061270b565b6005546040516370a0823160e01b81523060048201529192505f916001600160a01b03909116906370a0823190602401602060405180830381865afa158015611988573d5f803e3d5ffd5b505050506040513d601f19601f820116820180604052508101906119ac919061270b565b6004549091506119c9906001600160a01b038581169116846117ac565b6004546005546119e6916001600160a01b039182169116836117ac565b6004546005546001600160a01b039182169163e8e337009186911685855f806001611a134261012c61296e565b60405160e08a901b6001600160e01b03191681526001600160a01b039889166004820152968816602488015260448701959095526064860193909352608485019190915260a484015290921660c482015260e4810191909152610104016060604051808303815f875af1158015611a8c573d5f803e3d5ffd5b505050506040513d601f19601f82011682018060405250810190611ab09190612981565b505050826001600160a01b031663d3618cca6040518163ffffffff1660e01b81526004015f604051808303815f87803b158015611aeb575f80fd5b505af1158015611afd573d5f803e3d5ffd5b505060035460055460405163e6a4390560e01b81526001600160a01b03888116600483015291821660248201525f94509116915063e6a4390590604401602060405180830381865afa158015611b55573d5f803e3d5ffd5b505050506040513d601f19601f82011682018060405250810190611b79919061291a565b9050806001600160a01b0316846001600160a01b03167f078104880edb66f1071223b140a64f52a17db69b50655ee6c20e8a132fa18a3242604051611bc091815260200190565b60405180910390a350505050565b306001600160a01b037f0000000000000000000000000000000000000000000000000000000000000000161480611c5457507f00000000000000000000000000000000000000000000000000000000000000006001600160a01b0316611c485f80516020612a9b833981519152546001600160a01b031690565b6001600160a01b031614155b15611c725760405163703e46dd60e11b815260040160405180910390fd5b565b6006546001600160a01b031633146115c8576040516330cd747160e01b815260040160405180910390fd5b816001600160a01b03166352d1902d6040518163ffffffff1660e01b8152600401602060405180830381865afa925050508015611cf9575060408051601f3d908101601f19168201909252611cf69181019061270b565b60015b611d2657604051634c9c8ce360e01b81526001600160a01b03831660048201526024015b60405180910390fd5b5f80516020612a9b8339815191528114611d5657604051632a87526960e21b815260048101829052602401611d1d565b61186c8383612072565b306001600160a01b037f00000000000000000000000000000000000000000000000000000000000000001614611c725760405163703e46dd60e11b815260040160405180910390fd5b5f604051733d602d80600a3d3981f3363d3d373d3d3d363d7360601b81528360601b60148201526e5af43d82803e903d91602b57fd5bf360881b6028820152826037825ff59150506001600160a01b03811661068a576040516304ddc24d60e01b815260040160405180910390fd5b5f805b82811015611eac57838382818110611e3557611e356129ac565b9050602002810190611e4791906129c0565b611e589060c081019060a0016129de565b15611ea457612710848483818110611e7257611e726129ac565b9050602002810190611e8491906129c0565b611e9290602001358761275e565b611e9c9190612775565b915050610d42565b600101611e1b565b505f949350505050565b5f5b818110156117a65736838383818110611ed357611ed36129ac565b9050602002810190611ee591906129c0565b9050816001600160a01b0386167f8e26532d63f9bd3469e12de593b2f502ea7b66e9835478e5d126012f14bbcada611f1d84806129f9565b6020860135611f326060880160408901612301565b60608801356080890135611f4c60c08b0160a08c016129de565b604051611f5f9796959493929190612a3c565b60405180910390a350600101611eb8565b5f611f846001600160a01b038416836120c7565b905080515f14158015611fa8575080806020019051810190611fa6919061272f565b155b1561186c57604051635274afe760e01b81526001600160a01b0384166004820152602401611d1d565b5f805f846001600160a01b031684604051611fec9190612a84565b5f604051808303815f865af19150503d805f8114612025576040519150601f19603f3d011682016040523d82523d5f602084013e61202a565b606091505b5091509150818015612054575080511580612054575080806020019051810190612054919061272f565b801561206957505f856001600160a01b03163b115b95945050505050565b61207b826120d4565b6040516001600160a01b038316907fbc7cd75a20ee27fd9adebab32041f755214dbc6bffa90cc0225b39da2e5c2d3b905f90a28051156120bf5761186c8282612137565b6110f46121a0565b6060610d4283835f6121bf565b806001600160a01b03163b5f0361210957604051634c9c8ce360e01b81526001600160a01b0382166004820152602401611d1d565b5f80516020612a9b83398151915280546001600160a01b0319166001600160a01b0392909216919091179055565b60605f80846001600160a01b0316846040516121539190612a84565b5f60405180830381855af49150503d805f811461218b576040519150601f19603f3d011682016040523d82523d5f602084013e612190565b606091505b5091509150612069858383612258565b3415611c725760405163b398979f60e01b815260040160405180910390fd5b6060814710156121e45760405163cd78605960e01b8152306004820152602401611d1d565b5f80856001600160a01b031684866040516121ff9190612a84565b5f6040518083038185875af1925050503d805f8114612239576040519150601f19603f3d011682016040523d82523d5f602084013e61223e565b606091505b509150915061224e868383612258565b9695505050505050565b60608261226d57612268826122b4565b610d42565b815115801561228457506001600160a01b0384163b155b156122ad57604051639996b31560e01b81526001600160a01b0385166004820152602401611d1d565b5080610d42565b8051156122c45780518082602001fd5b604051630a12f52160e11b815260040160405180910390fd5b6001600160a01b03811681146115c8575f80fd5b80356122fc816122dd565b919050565b5f60208284031215612311575f80fd5b8135610d42816122dd565b5f805f805f805f80610100898b031215612334575f80fd5b883561233f816122dd565b9750602089013596506040890135612356816122dd565b9550606089013594506080890135935060a089013560ff81168114612379575f80fd5b979a969950949793969295929450505060c08201359160e0013590565b5f80604083850312156123a7575f80fd5b8235915060208301356123b9816122dd565b809150509250929050565b5f805f80608085870312156123d7575f80fd5b84356123e2816122dd565b93506020850135925060408501356123f9816122dd565b9396929550929360600135925050565b5f805f805f805f60e0888a03121561241f575f80fd5b873561242a816122dd565b9650602088013561243a816122dd565b9550604088013561244a816122dd565b9450606088013561245a816122dd565b9350608088013561246a816122dd565b925060a088013561247a816122dd565b915060c088013561248a816122dd565b8091505092959891949750929550565b5f80604083850312156124ab575f80fd5b82356124b6816122dd565b946020939093013593505050565b634e487b7160e01b5f52604160045260245ffd5b5f80604083850312156124e9575f80fd5b82356124f4816122dd565b9150602083013567ffffffffffffffff80821115612510575f80fd5b818501915085601f830112612523575f80fd5b813581811115612535576125356124c4565b604051601f8201601f19908116603f0116810190838211818310171561255d5761255d6124c4565b81604052828152886020848701011115612575575f80fd5b826020860160208301375f6020848301015280955050505050509250929050565b602081525f82518060208401528060208501604085015e5f604082850101526040601f19601f83011684010191505092915050565b5f602082840312156125db575f80fd5b5035919050565b5f8083601f8401126125f2575f80fd5b50813567ffffffffffffffff811115612609575f80fd5b602083019150836020828501011115612620575f80fd5b9250929050565b5f805f805f805f805f8060e08b8d031215612640575f80fd5b8a3567ffffffffffffffff80821115612657575f80fd5b6126638e838f016125e2565b909c509a5060208d013591508082111561267b575f80fd5b6126878e838f016125e2565b909a50985060408d0135975060608d01359150808211156126a6575f80fd5b818d0191508d601f8301126126b9575f80fd5b8135818111156126c7575f80fd5b8e60208260051b85010111156126db575f80fd5b60208301975080965050505060808b0135925060a08b0135915060c08b013590509295989b9194979a5092959850565b5f6020828403121561271b575f80fd5b5051919050565b80151581146115c8575f80fd5b5f6020828403121561273f575f80fd5b8151610d4281612722565b634e487b7160e01b5f52601160045260245ffd5b808202811582820484141761068a5761068a61274a565b5f8261278f57634e487b7160e01b5f52601260045260245ffd5b500490565b8181038181111561068a5761068a61274a565b81835281816020850137505f828201602090810191909152601f909101601f19169091010190565b80356122fc81612722565b5f60a08083526127ee60a084018b8d6127a7565b602084820381860152612802828b8d6127a7565b9150604089604087015260608684036060880152838985528385019050838a60051b8601018b5f5b8c8110156128fb57878303601f190184528135368f900360be1901811261284f575f80fd5b8e0160c0813536839003601e19018112612867575f80fd5b8201898101903567ffffffffffffffff811115612882575f80fd5b803603821315612890575f80fd5b8287526128a083880182846127a7565b9250505088820135898601526128b78883016122f1565b6001600160a01b0316888601528682013587860152608080830135908601526128e18b83016127cf565b1515948b019490945250928601929086019060010161282a565b50506001600160a01b038a1660808a0152965061071d95505050505050565b5f6020828403121561292a575f80fd5b8151610d42816122dd565b606081525f6129486060830187896127a7565b828103602084015261295b8186886127a7565b9150508260408301529695505050505050565b8082018082111561068a5761068a61274a565b5f805f60608486031215612993575f80fd5b8351925060208401519150604084015190509250925092565b634e487b7160e01b5f52603260045260245ffd5b5f823560be198336030181126129d4575f80fd5b9190910192915050565b5f602082840312156129ee575f80fd5b8135610d4281612722565b5f808335601e19843603018112612a0e575f80fd5b83018035915067ffffffffffffffff821115612a28575f80fd5b602001915036819003821315612620575f80fd5b60c081525f612a4f60c08301898b6127a7565b6020830197909752506001600160a01b0394909416604085015260608401929092526080830152151560a09091015292915050565b5f82518060208501845e5f92019182525091905056fe360894a13ba1a3210667c828492db98dca3e2076cc3735a920a3ca505d382bbca2646970667358221220a7a9d88ce02ceef36b9dfed8ecb025e15a0c777640c25fff28748dd7c81acc1064736f6c63430008190033","linkReferences":{}},"methodIdentifiers":{"UPGRADE_INTERFACE_VERSION()":"ad3cb1cc","allTokens(uint256)":"634282af","allTokensLength()":"dbb80e42","assetToken()":"1083f761","bcPairFactory()":"efb3c1a7","bcRouter()":"18da2455","buyGPToken(address,uint256,address,uint256)":"45300973","createGPToken(string,string,uint256,(string,uint256,address,uint256,uint256,bool)[],uint256,uint256,bytes32)":"63737818","feeRecipient()":"46904840","getAssetOut(address,uint256)":"6d04f2a7","getPrice(address)":"41976e09","getPriceWAD(address)":"01c57b1a","getTokensOut(address,uint256)":"38447bbf","graduateGPToken(address)":"b3590b36","graduationThreshold(address)":"72eaeb96","initialize(address,address,address,address,address,address,address)":"35876476","initializeV2(uint256,address)":"2490fe36","owner()":"8da5cb5b","platformFeePercent()":"8c639a85","proxiableUUID()":"52d1902d","sellGPToken(address,uint256,address,uint256)":"2fef2226","sellGPTokenWithPermit(address,uint256,address,uint256,uint256,uint8,bytes32,bytes32)":"1c4dde4d","setFeeRecipient(address)":"e74b981b","setPlatformFeePercent(uint256)":"cab230d2","tokenImplementation()":"2f3a3d5d","tokenToPair(address)":"8a047d5e","transferOwnership(address)":"f2fde38b","uniswapV2Factory()":"59d0f713","uniswapV2Router()":"1694505e","upgradeToAndCall(address,bytes)":"4f1ef286","version()":"54fd4d50","virtualAssetReserve(address)":"b7b81094"},"id":54}