{"abi":[{"type":"constructor","inputs":[],"stateMutability":"nonpayable"},{"type":"function","name":"BASIS_POINTS","inputs":[],"outputs":[{"name":"","type":"uint256","internalType":"uint256"}],"stateMutability":"view"},{"type":"function","name":"DOMAIN_SEPARATOR","inputs":[],"outputs":[{"name":"","type":"bytes32","internalType":"bytes32"}],"stateMutability":"view"},{"type":"function","name":"allowance","inputs":[{"name":"owner","type":"address","internalType":"address"},{"name":"spender","type":"address","internalType":"address"}],"outputs":[{"name":"","type":"uint256","internalType":"uint256"}],"stateMutability":"view"},{"type":"function","name":"approve","inputs":[{"name":"spender","type":"address","internalType":"address"},{"name":"value","type":"uint256","internalType":"uint256"}],"outputs":[{"name":"","type":"bool","internalType":"bool"}],"stateMutability":"nonpayable"},{"type":"function","name":"balanceOf","inputs":[{"name":"account","type":"address","internalType":"address"}],"outputs":[{"name":"","type":"uint256","internalType":"uint256"}],"stateMutability":"view"},{"type":"function","name":"bondingPhase","inputs":[],"outputs":[{"name":"","type":"bool","internalType":"bool"}],"stateMutability":"view"},{"type":"function","name":"bucketCount","inputs":[],"outputs":[{"name":"","type":"uint256","internalType":"uint256"}],"stateMutability":"view"},{"type":"function","name":"buckets","inputs":[{"name":"","type":"uint256","internalType":"uint256"}],"outputs":[{"name":"name","type":"string","internalType":"string"},{"name":"basisPoints","type":"uint256","internalType":"uint256"},{"name":"recipient","type":"address","internalType":"address"},{"name":"cliff","type":"uint256","internalType":"uint256"},{"name":"vestingDuration","type":"uint256","internalType":"uint256"},{"name":"isLiquidity","type":"bool","internalType":"bool"}],"stateMutability":"view"},{"type":"function","name":"claimBucket","inputs":[{"name":"bucketIndex","type":"uint256","internalType":"uint256"}],"outputs":[],"stateMutability":"nonpayable"},{"type":"function","name":"claimedPerBucket","inputs":[{"name":"","type":"uint256","internalType":"uint256"}],"outputs":[{"name":"","type":"uint256","internalType":"uint256"}],"stateMutability":"view"},{"type":"function","name":"decimals","inputs":[],"outputs":[{"name":"","type":"uint8","internalType":"uint8"}],"stateMutability":"view"},{"type":"function","name":"eip712Domain","inputs":[],"outputs":[{"name":"fields","type":"bytes1","internalType":"bytes1"},{"name":"name","type":"string","internalType":"string"},{"name":"version","type":"string","internalType":"string"},{"name":"chainId","type":"uint256","internalType":"uint256"},{"name":"verifyingContract","type":"address","internalType":"address"},{"name":"salt","type":"bytes32","internalType":"bytes32"},{"name":"extensions","type":"uint256[]","internalType":"uint256[]"}],"stateMutability":"view"},{"type":"function","name":"factory","inputs":[],"outputs":[{"name":"","type":"address","internalType":"address"}],"stateMutability":"view"},{"type":"function","name":"graduate","inputs":[],"outputs":[],"stateMutability":"nonpayable"},{"type":"function","name":"graduationTimestamp","inputs":[],"outputs":[{"name":"","type":"uint256","internalType":"uint256"}],"stateMutability":"view"},{"type":"function","name":"initialize","inputs":[{"name":"name_","type":"string","internalType":"string"},{"name":"symbol_","type":"string","internalType":"string"},{"name":"totalSupply_","type":"uint256","internalType":"uint256"},{"name":"_buckets","type":"tuple[]","internalType":"struct GradPadToken.Bucket[]","components":[{"name":"name","type":"string","internalType":"string"},{"name":"basisPoints","type":"uint256","internalType":"uint256"},{"name":"recipient","type":"address","internalType":"address"},{"name":"cliff","type":"uint256","internalType":"uint256"},{"name":"vestingDuration","type":"uint256","internalType":"uint256"},{"name":"isLiquidity","type":"bool","internalType":"bool"}]},{"name":"factory_","type":"address","internalType":"address"}],"outputs":[],"stateMutability":"nonpayable"},{"type":"function","name":"name","inputs":[],"outputs":[{"name":"","type":"string","internalType":"string"}],"stateMutability":"view"},{"type":"function","name":"nonces","inputs":[{"name":"owner","type":"address","internalType":"address"}],"outputs":[{"name":"","type":"uint256","internalType":"uint256"}],"stateMutability":"view"},{"type":"function","name":"permit","inputs":[{"name":"owner","type":"address","internalType":"address"},{"name":"spender","type":"address","internalType":"address"},{"name":"value","type":"uint256","internalType":"uint256"},{"name":"deadline","type":"uint256","internalType":"uint256"},{"name":"v","type":"uint8","internalType":"uint8"},{"name":"r","type":"bytes32","internalType":"bytes32"},{"name":"s","type":"bytes32","internalType":"bytes32"}],"outputs":[],"stateMutability":"nonpayable"},{"type":"function","name":"setGraduationTimestamp","inputs":[{"name":"ts","type":"uint256","internalType":"uint256"}],"outputs":[],"stateMutability":"nonpayable"},{"type":"function","name":"symbol","inputs":[],"outputs":[{"name":"","type":"string","internalType":"string"}],"stateMutability":"view"},{"type":"function","name":"totalSupply","inputs":[],"outputs":[{"name":"","type":"uint256","internalType":"uint256"}],"stateMutability":"view"},{"type":"function","name":"totalTokenSupply","inputs":[],"outputs":[{"name":"","type":"uint256","internalType":"uint256"}],"stateMutability":"view"},{"type":"function","name":"transfer","inputs":[{"name":"to","type":"address","internalType":"address"},{"name":"value","type":"uint256","internalType":"uint256"}],"outputs":[{"name":"","type":"bool","internalType":"bool"}],"stateMutability":"nonpayable"},{"type":"function","name":"transferFrom","inputs":[{"name":"from","type":"address","internalType":"address"},{"name":"to","type":"address","internalType":"address"},{"name":"value","type":"uint256","internalType":"uint256"}],"outputs":[{"name":"","type":"bool","internalType":"bool"}],"stateMutability":"nonpayable"},{"type":"function","name":"transferLiquidityToBcPair","inputs":[{"name":"bcPair","type":"address","internalType":"address"}],"outputs":[],"stateMutability":"nonpayable"},{"type":"event","name":"Approval","inputs":[{"name":"owner","type":"address","indexed":true,"internalType":"address"},{"name":"spender","type":"address","indexed":true,"internalType":"address"},{"name":"value","type":"uint256","indexed":false,"internalType":"uint256"}],"anonymous":false},{"type":"event","name":"BucketClaimed","inputs":[{"name":"bucketIndex","type":"uint256","indexed":true,"internalType":"uint256"},{"name":"recipient","type":"address","indexed":true,"internalType":"address"},{"name":"amount","type":"uint256","indexed":false,"internalType":"uint256"}],"anonymous":false},{"type":"event","name":"EIP712DomainChanged","inputs":[],"anonymous":false},{"type":"event","name":"Graduated","inputs":[{"name":"timestamp","type":"uint256","indexed":false,"internalType":"uint256"}],"anonymous":false},{"type":"event","name":"Transfer","inputs":[{"name":"from","type":"address","indexed":true,"internalType":"address"},{"name":"to","type":"address","indexed":true,"internalType":"address"},{"name":"value","type":"uint256","indexed":false,"internalType":"uint256"}],"anonymous":false},{"type":"error","name":"AlreadyGraduated","inputs":[]},{"type":"error","name":"AlreadyInitialized","inputs":[]},{"type":"error","name":"ECDSAInvalidSignature","inputs":[]},{"type":"error","name":"ECDSAInvalidSignatureLength","inputs":[{"name":"length","type":"uint256","internalType":"uint256"}]},{"type":"error","name":"ECDSAInvalidSignatureS","inputs":[{"name":"s","type":"bytes32","internalType":"bytes32"}]},{"type":"error","name":"ERC20InsufficientAllowance","inputs":[{"name":"spender","type":"address","internalType":"address"},{"name":"allowance","type":"uint256","internalType":"uint256"},{"name":"needed","type":"uint256","internalType":"uint256"}]},{"type":"error","name":"ERC20InsufficientBalance","inputs":[{"name":"sender","type":"address","internalType":"address"},{"name":"balance","type":"uint256","internalType":"uint256"},{"name":"needed","type":"uint256","internalType":"uint256"}]},{"type":"error","name":"ERC20InvalidApprover","inputs":[{"name":"approver","type":"address","internalType":"address"}]},{"type":"error","name":"ERC20InvalidReceiver","inputs":[{"name":"receiver","type":"address","internalType":"address"}]},{"type":"error","name":"ERC20InvalidSender","inputs":[{"name":"sender","type":"address","internalType":"address"}]},{"type":"error","name":"ERC20InvalidSpender","inputs":[{"name":"spender","type":"address","internalType":"address"}]},{"type":"error","name":"ERC2612ExpiredSignature","inputs":[{"name":"deadline","type":"uint256","internalType":"uint256"}]},{"type":"error","name":"ERC2612InvalidSigner","inputs":[{"name":"signer","type":"address","internalType":"address"},{"name":"owner","type":"address","internalType":"address"}]},{"type":"error","name":"InvalidAccountNonce","inputs":[{"name":"account","type":"address","internalType":"address"},{"name":"currentNonce","type":"uint256","internalType":"uint256"}]},{"type":"error","name":"InvalidShortString","inputs":[]},{"type":"error","name":"ReentrancyGuardReentrantCall","inputs":[]},{"type":"error","name":"StringTooLong","inputs":[{"name":"str","type":"string","internalType":"string"}]},{"type":"error","name":"Unauthorized","inputs":[]}],"bytecode":{"object":"0x610160604052348015610010575f80fd5b5060408051602080820183525f8083528351808501855260018152603160f81b818401528451808401865282815285519384019095529082529192839291600361005a8382610236565b5060046100678282610236565b5061007791508390506005610126565b61012052610086816006610126565b61014052815160208084019190912060e052815190820120610100524660a05261011260e05161010051604080517f8b73c3c69bb8fe3d512ecc4cf759cc79239f7b179b0ffacaa9a75d522b39400f60208201529081019290925260608201524660808201523060a08201525f9060c00160405160208183030381529060405280519060200120905090565b60805250503060c05250600160085561034d565b5f6020835110156101415761013a83610158565b9050610152565b8161014c8482610236565b5060ff90505b92915050565b5f80829050601f8151111561018b578260405163305a27a960e01b815260040161018291906102f5565b60405180910390fd5b80516101968261032a565b179392505050565b634e487b7160e01b5f52604160045260245ffd5b600181811c908216806101c657607f821691505b6020821081036101e457634e487b7160e01b5f52602260045260245ffd5b50919050565b601f82111561023157805f5260205f20601f840160051c8101602085101561020f5750805b601f840160051c820191505b8181101561022e575f815560010161021b565b50505b505050565b81516001600160401b0381111561024f5761024f61019e565b6102638161025d84546101b2565b846101ea565b602080601f831160018114610296575f841561027f5750858301515b5f19600386901b1c1916600185901b1785556102ed565b5f85815260208120601f198616915b828110156102c4578886015182559484019460019091019084016102a5565b50858210156102e157878501515f19600388901b60f8161c191681555b505060018460011b0185555b505050505050565b602081525f82518060208401528060208501604085015e5f604082850101526040601f19601f83011684010191505092915050565b805160208083015191908110156101e4575f1960209190910360031b1b16919050565b60805160a05160c05160e051610100516101205161014051611fc061039e5f395f61101801525f610feb01525f610f9401525f610f6c01525f610ec701525f610ef101525f610f1b0152611fc05ff3fe608060405234801561000f575f80fd5b5060043610610187575f3560e01c806384b0196e116100d9578063c2f5673e11610093578063d505accf1161006e578063d505accf14610352578063dbbe98ae14610365578063dd62ed3e14610378578063e1f1c4a7146103b0575f80fd5b8063c2f5673e14610317578063c45a01551461031f578063d3618cca1461034a575f80fd5b806384b0196e1461029657806395d89b41146102b15780639b51fb0d146102b95780639dc5fb73146102de578063a9059cbb146102f1578063b055054914610304575f80fd5b80631d97add911610144578063313ce5671161011f578063313ce567146102445780633644e5151461025357806370a082311461025b5780637ecebe0014610283575f80fd5b80631d97add9146102095780631fe910221461022857806323b872dd14610231575f80fd5b806306fdde031461018b578063094043e8146101a9578063095ea7b3146101c657806312a32e52146101d957806318160ddd146101ee5780631ca8b6cb14610200575b5f80fd5b6101936103b9565b6040516101a09190611861565b60405180910390f35b600f546101b69060ff1681565b60405190151581526020016101a0565b6101b66101d436600461188e565b610449565b6101ec6101e73660046118b6565b610462565b005b6002545b6040519081526020016101a0565b6101f2600d5481565b6101f26102173660046118b6565b60106020525f908152604090205481565b6101f2600e5481565b6101b661023f3660046118cd565b610866565b604051601281526020016101a0565b6101f2610889565b6101f2610269366004611906565b6001600160a01b03165f9081526020819052604090205490565b6101f2610291366004611906565b610897565b61029e6108b4565b6040516101a0979695949392919061191f565b6101936108f6565b6102cc6102c73660046118b6565b610905565b6040516101a0969594939291906119b6565b6101ec6102ec366004611906565b6109e0565b6101b66102ff36600461188e565b610a7e565b6101ec6103123660046118b6565b610a8b565b600c546101f2565b600b54610332906001600160a01b031681565b6040516001600160a01b0390911681526020016101a0565b6101ec610ac4565b6101ec6103603660046119fc565b610b32565b6101ec610373366004611b43565b610c68565b6101f2610386366004611ce7565b6001600160a01b039182165f90815260016020908152604080832093909416825291909152205490565b6101f261271081565b6060600980546103c890611d18565b80601f01602080910402602001604051908101604052809291908181526020018280546103f490611d18565b801561043f5780601f106104165761010080835404028352916020019161043f565b820191905f5260205f20905b81548152906001019060200180831161042257829003601f168201915b5050505050905090565b5f33610456818585610dac565b60019150505b92915050565b61046a610db9565b5f600e54116104b95760405162461bcd60e51b815260206004820152601660248201527511dc98591418590e881b9bdd0819dc98591d585d195960521b60448201526064015b60405180910390fd5b600c54811061050a5760405162461bcd60e51b815260206004820152601760248201527f477261645061643a20696e76616c6964206275636b657400000000000000000060448201526064016104b0565b5f600c828154811061051e5761051e611d50565b905f5260205f2090600602016040518060c00160405290815f8201805461054490611d18565b80601f016020809104026020016040519081016040528092919081815260200182805461057090611d18565b80156105bb5780601f10610592576101008083540402835291602001916105bb565b820191905f5260205f20905b81548152906001019060200180831161059e57829003601f168201915b50505091835250506001820154602082015260028201546001600160a01b03166040820152600382015460608201526004820154608082015260059091015460ff16151560a091820152810151909150156106585760405162461bcd60e51b815260206004820152601f60248201527f477261645061643a2063616e6e6f7420636c61696d206c69717569646974790060448201526064016104b0565b80604001516001600160a01b0316336001600160a01b0316146106b65760405162461bcd60e51b815260206004820152601660248201527511dc98591418590e881b9bdd081c9958da5c1a595b9d60521b60448201526064016104b0565b5f600e54426106c59190611d78565b9050816060015181101561071b5760405162461bcd60e51b815260206004820152601a60248201527f477261645061643a20636c696666206e6f7420656c617073656400000000000060448201526064016104b0565b5f6127108360200151600d546107319190611d8b565b61073b9190611db6565b606084015160808501519192508303905f90158061075d575084608001518210155b1561077857505f8581526010602052604090205482036107a0565b5f8681526010602052604090205460808601518484028161079b5761079b611da2565b040390505b5f81116107ef5760405162461bcd60e51b815260206004820152601960248201527f477261645061643a206e6f7468696e6720746f20636c61696d0000000000000060448201526064016104b0565b5f868152601060205260408120805483929061080c908490611dd5565b9091555061081d9050303383610de3565b604051818152339087907f5f1d5c9e26bfdeea466684ec4b28c096dbe013adaf00a89fd28d376e03adf34c9060200160405180910390a350505050506108636001600855565b50565b5f33610873858285610e40565b61087e858585610de3565b506001949350505050565b5f610892610ebb565b905090565b6001600160a01b0381165f9081526007602052604081205461045c565b5f6060805f805f60606108c5610fe4565b6108cd611011565b604080515f80825260208201909252600f60f81b9b939a50919850469750309650945092509050565b6060600a80546103c890611d18565b600c8181548110610914575f80fd5b905f5260205f2090600602015f91509050805f01805461093390611d18565b80601f016020809104026020016040519081016040528092919081815260200182805461095f90611d18565b80156109aa5780601f10610981576101008083540402835291602001916109aa565b820191905f5260205f20905b81548152906001019060200180831161098d57829003601f168201915b5050506001840154600285015460038601546004870154600590970154959692956001600160a01b039092169450925060ff1686565b6109e861103e565b5f5b600c54811015610a7a57600c8181548110610a0757610a07611d50565b5f91825260209091206005600690920201015460ff1615610a72575f612710600c8381548110610a3957610a39611d50565b905f5260205f20906006020160010154600d54610a569190611d8b565b610a609190611db6565b9050610a6d308483610de3565b505050565b6001016109ea565b5050565b5f33610456818585610de3565b600b546001600160a01b03163314610ab5576040516282b42960e81b815260040160405180910390fd5b600e55600f805460ff19169055565b610acc61103e565b600e5415610aed5760405163e6a0d45f60e01b815260040160405180910390fd5b42600e819055600f805460ff191690556040519081527f04d39283851d5dc1961a5296a48d487854db2aae45afe51e83aae1db8d04d42f9060200160405180910390a1565b83421115610b565760405163313c898160e11b8152600481018590526024016104b0565b5f7f6e71edae12b1b97f4d1f60370fef10105fa2faae0126114a169c64845d6126c9888888610ba18c6001600160a01b03165f90815260076020526040902080546001810190915590565b6040805160208101969096526001600160a01b0394851690860152929091166060840152608083015260a082015260c0810186905260e0016040516020818303038152906040528051906020012090505f610bfb8261106a565b90505f610c0a82878787611141565b9050896001600160a01b0316816001600160a01b031614610c51576040516325c0072360e11b81526001600160a01b0380831660048301528b1660248201526044016104b0565b610c5c8a8a8a610dac565b50505050505050505050565b600b546001600160a01b031615610c915760405162dc149f60e41b815260040160405180910390fd5b6009610c9d8682611e2c565b50600a610caa8582611e2c565b50600b80546001600160a01b0319166001600160a01b038316179055600d839055600f805460ff19166001179055610ce18261116d565b5f5b8251811015610d9a57600c838281518110610d0057610d00611d50565b60209081029190910181015182546001810184555f938452919092208251600690920201908190610d319082611e2c565b50602082015160018281019190915560408301516002830180546001600160a01b0319166001600160a01b03909216919091179055606083015160038301556080830151600483015560a0909201516005909101805460ff191691151591909117905501610ce3565b50610da5308461137a565b5050505050565b610a6d83838360016113ae565b600260085403610ddc57604051633ee5aeb560e01b815260040160405180910390fd5b6002600855565b6001600160a01b038316610e0c57604051634b637e8f60e11b81525f60048201526024016104b0565b6001600160a01b038216610e355760405163ec442f0560e01b81525f60048201526024016104b0565b610a6d838383611480565b6001600160a01b038381165f908152600160209081526040808320938616835292905220545f198114610eb55781811015610ea757604051637dc7a0d960e11b81526001600160a01b038416600482015260248101829052604481018390526064016104b0565b610eb584848484035f6113ae565b50505050565b5f306001600160a01b037f000000000000000000000000000000000000000000000000000000000000000016148015610f1357507f000000000000000000000000000000000000000000000000000000000000000046145b15610f3d57507f000000000000000000000000000000000000000000000000000000000000000090565b610892604080517f8b73c3c69bb8fe3d512ecc4cf759cc79239f7b179b0ffacaa9a75d522b39400f60208201527f0000000000000000000000000000000000000000000000000000000000000000918101919091527f000000000000000000000000000000000000000000000000000000000000000060608201524660808201523060a08201525f9060c00160405160208183030381529060405280519060200120905090565b60606108927f000000000000000000000000000000000000000000000000000000000000000060056115a6565b60606108927f000000000000000000000000000000000000000000000000000000000000000060066115a6565b600b546001600160a01b03163314611068576040516282b42960e81b815260040160405180910390fd5b565b5f807f8b73c3c69bb8fe3d512ecc4cf759cc79239f7b179b0ffacaa9a75d522b39400f600960405161109c9190611eec565b60408051918290038220828201825260018352603160f81b6020938401528151928301939093528101919091527fc89efdaa54c0f20c7adf612882df0950f5a951637e0307cdcb4c672f298b8bc660608201524660808201523060a082015260c00160405160208183030381529060405280519060200120905061113a818460405161190160f01b8152600281019290925260228201526042902090565b9392505050565b5f805f806111518888888861164f565b9250925092506111618282611717565b50909695505050505050565b60018151101580156111815750600a815111155b6111cd5760405162461bcd60e51b815260206004820152601d60248201527f477261645061643a20696e76616c6964206275636b657420636f756e7400000060448201526064016104b0565b5f805f5b83518110156112c0578381815181106111ec576111ec611d50565b602002602001015160200151836112039190611dd5565b925083818151811061121757611217611d50565b602002602001015160a001511561123a578161123281611f5e565b9250506112b8565b5f6001600160a01b031684828151811061125657611256611d50565b6020026020010151604001516001600160a01b0316036112b85760405162461bcd60e51b815260206004820152601760248201527f477261645061643a207a65726f20726563697069656e7400000000000000000060448201526064016104b0565b6001016111d1565b50612710821461131c5760405162461bcd60e51b815260206004820152602160248201527f477261645061643a206275636b657473206d7573742073756d20746f203130306044820152602560f81b60648201526084016104b0565b80600114610a6d5760405162461bcd60e51b815260206004820152602560248201527f477261645061643a2065786163746c79206f6e65206c697175696469747920626044820152641d58dad95d60da1b60648201526084016104b0565b6001600160a01b0382166113a35760405163ec442f0560e01b81525f60048201526024016104b0565b610a7a5f8383611480565b6001600160a01b0384166113d75760405163e602df0560e01b81525f60048201526024016104b0565b6001600160a01b03831661140057604051634a1406b160e11b81525f60048201526024016104b0565b6001600160a01b038085165f9081526001602090815260408083209387168352929052208290558015610eb557826001600160a01b0316846001600160a01b03167f8c5be1e5ebec7d5bd14f71427d1e84f3dd0314c0f7b2291e5b200ac8c7c3b9258460405161147291815260200190565b60405180910390a350505050565b6001600160a01b0383166114aa578060025f82825461149f9190611dd5565b9091555061151a9050565b6001600160a01b0383165f90815260208190526040902054818110156114fc5760405163391434e360e21b81526001600160a01b038516600482015260248101829052604481018390526064016104b0565b6001600160a01b0384165f9081526020819052604090209082900390555b6001600160a01b03821661153657600280548290039055611554565b6001600160a01b0382165f9081526020819052604090208054820190555b816001600160a01b0316836001600160a01b03167fddf252ad1be2c89b69c2b068fc378daa952ba7f163c4a11628f55a4df523b3ef8360405161159991815260200190565b60405180910390a3505050565b606060ff83146115c0576115b9836117cf565b905061045c565b8180546115cc90611d18565b80601f01602080910402602001604051908101604052809291908181526020018280546115f890611d18565b80156116435780601f1061161a57610100808354040283529160200191611643565b820191905f5260205f20905b81548152906001019060200180831161162657829003601f168201915b5050505050905061045c565b5f80807f7fffffffffffffffffffffffffffffff5d576e7357a4501ddfe92f46681b20a084111561168857505f9150600390508261170d565b604080515f808252602082018084528a905260ff891692820192909252606081018790526080810186905260019060a0016020604051602081039080840390855afa1580156116d9573d5f803e3d5ffd5b5050604051601f1901519150506001600160a01b03811661170457505f92506001915082905061170d565b92505f91508190505b9450945094915050565b5f82600381111561172a5761172a611f76565b03611733575050565b600182600381111561174757611747611f76565b036117655760405163f645eedf60e01b815260040160405180910390fd5b600282600381111561177957611779611f76565b0361179a5760405163fce698f760e01b8152600481018290526024016104b0565b60038260038111156117ae576117ae611f76565b03610a7a576040516335e2f38360e21b8152600481018290526024016104b0565b60605f6117db8361180c565b6040805160208082528183019092529192505f91906020820181803683375050509182525060208101929092525090565b5f60ff8216601f81111561045c57604051632cd44ac360e21b815260040160405180910390fd5b5f81518084528060208401602086015e5f602082860101526020601f19601f83011685010191505092915050565b602081525f61113a6020830184611833565b80356001600160a01b0381168114611889575f80fd5b919050565b5f806040838503121561189f575f80fd5b6118a883611873565b946020939093013593505050565b5f602082840312156118c6575f80fd5b5035919050565b5f805f606084860312156118df575f80fd5b6118e884611873565b92506118f660208501611873565b9150604084013590509250925092565b5f60208284031215611916575f80fd5b61113a82611873565b60ff60f81b881681525f602060e0602084015261193f60e084018a611833565b8381036040850152611951818a611833565b606085018990526001600160a01b038816608086015260a0850187905284810360c0860152855180825260208088019350909101905f5b818110156119a457835183529284019291840191600101611988565b50909c9b505050505050505050505050565b60c081525f6119c860c0830189611833565b6020830197909752506001600160a01b0394909416604085015260608401929092526080830152151560a090910152919050565b5f805f805f805f60e0888a031215611a12575f80fd5b611a1b88611873565b9650611a2960208901611873565b95506040880135945060608801359350608088013560ff81168114611a4c575f80fd5b9699959850939692959460a0840135945060c09093013592915050565b634e487b7160e01b5f52604160045260245ffd5b60405160c0810167ffffffffffffffff81118282101715611aa057611aa0611a69565b60405290565b604051601f8201601f1916810167ffffffffffffffff81118282101715611acf57611acf611a69565b604052919050565b5f82601f830112611ae6575f80fd5b813567ffffffffffffffff811115611b0057611b00611a69565b611b13601f8201601f1916602001611aa6565b818152846020838601011115611b27575f80fd5b816020850160208301375f918101602001919091529392505050565b5f805f805f60a08688031215611b57575f80fd5b67ffffffffffffffff8087351115611b6d575f80fd5b611b7a8888358901611ad7565b95508060208801351115611b8c575f80fd5b611b9c8860208901358901611ad7565b9450604087013593508060608801351115611bb5575f80fd5b6060870135870188601f820112611bca575f80fd5b8181351115611bdb57611bdb611a69565b611beb6020823560051b01611aa6565b81358082526020808301929160051b8401018b1015611c08575f80fd5b602083015b6020843560051b850101811015611cc8578481351115611c2b575f80fd5b8035840160c0818e03601f19011215611c42575f80fd5b611c4a611a7d565b8660208301351115611c5a575f80fd5b611c6c8e602080850135850101611ad7565b815260408201356020820152611c8460608301611873565b6040820152608082810135606083015260a08301359082015260c082013580151514611cae575f80fd5b60c0919091013560a0820152835260209283019201611c0d565b509450611cdb9250505060808701611873565b90509295509295909350565b5f8060408385031215611cf8575f80fd5b611d0183611873565b9150611d0f60208401611873565b90509250929050565b600181811c90821680611d2c57607f821691505b602082108103611d4a57634e487b7160e01b5f52602260045260245ffd5b50919050565b634e487b7160e01b5f52603260045260245ffd5b634e487b7160e01b5f52601160045260245ffd5b8181038181111561045c5761045c611d64565b808202811582820484141761045c5761045c611d64565b634e487b7160e01b5f52601260045260245ffd5b5f82611dd057634e487b7160e01b5f52601260045260245ffd5b500490565b8082018082111561045c5761045c611d64565b601f821115610a6d57805f5260205f20601f840160051c81016020851015611e0d5750805b601f840160051c820191505b81811015610da5575f8155600101611e19565b815167ffffffffffffffff811115611e4657611e46611a69565b611e5a81611e548454611d18565b84611de8565b602080601f831160018114611e8d575f8415611e765750858301515b5f19600386901b1c1916600185901b178555611ee4565b5f85815260208120601f198616915b82811015611ebb57888601518255948401946001909101908401611e9c565b5085821015611ed857878501515f19600388901b60f8161c191681555b505060018460011b0185555b505050505050565b5f808354611ef981611d18565b60018281168015611f115760018114611f2657611f52565b60ff1984168752821515830287019450611f52565b875f526020805f205f5b85811015611f495781548a820152908401908201611f30565b50505082870194505b50929695505050505050565b5f60018201611f6f57611f6f611d64565b5060010190565b634e487b7160e01b5f52602160045260245ffdfea2646970667358221220c6ee41aecbc0663c89d4e8025bdb5dd0a42e90017afb5629dde95d3bd8b9079f64736f6c63430008190033","linkReferences":{}},"methodIdentifiers":{"BASIS_POINTS()":"e1f1c4a7","DOMAIN_SEPARATOR()":"3644e515","allowance(address,address)":"dd62ed3e","approve(address,uint256)":"095ea7b3","balanceOf(address)":"70a08231","bondingPhase()":"094043e8","bucketCount()":"c2f5673e","buckets(uint256)":"9b51fb0d","claimBucket(uint256)":"12a32e52","claimedPerBucket(uint256)":"1d97add9","decimals()":"313ce567","eip712Domain()":"84b0196e","factory()":"c45a0155","graduate()":"d3618cca","graduationTimestamp()":"1fe91022","initialize(string,string,uint256,(string,uint256,address,uint256,uint256,bool)[],address)":"dbbe98ae","name()":"06fdde03","nonces(address)":"7ecebe00","permit(address,address,uint256,uint256,uint8,bytes32,bytes32)":"d505accf","setGraduationTimestamp(uint256)":"b0550549","symbol()":"95d89b41","totalSupply()":"18160ddd","totalTokenSupply()":"1ca8b6cb","transfer(address,uint256)":"a9059cbb","transferFrom(address,address,uint256)":"23b872dd","transferLiquidityToBcPair(address)":"9dc5fb73"},"id":55}