{"abi":[{"type":"constructor","inputs":[],"stateMutability":"nonpayable"},{"type":"function","name":"DAILY_LIMIT","inputs":[],"outputs":[{"name":"","type":"uint256","internalType":"uint256"}],"stateMutability":"view"},{"type":"function","name":"allowance","inputs":[{"name":"owner","type":"address","internalType":"address"},{"name":"spender","type":"address","internalType":"address"}],"outputs":[{"name":"","type":"uint256","internalType":"uint256"}],"stateMutability":"view"},{"type":"function","name":"approve","inputs":[{"name":"spender","type":"address","internalType":"address"},{"name":"value","type":"uint256","internalType":"uint256"}],"outputs":[{"name":"","type":"bool","internalType":"bool"}],"stateMutability":"nonpayable"},{"type":"function","name":"balanceOf","inputs":[{"name":"account","type":"address","internalType":"address"}],"outputs":[{"name":"","type":"uint256","internalType":"uint256"}],"stateMutability":"view"},{"type":"function","name":"decimals","inputs":[],"outputs":[{"name":"","type":"uint8","internalType":"uint8"}],"stateMutability":"pure"},{"type":"function","name":"mint","inputs":[{"name":"amount","type":"uint256","internalType":"uint256"}],"outputs":[],"stateMutability":"nonpayable"},{"type":"function","name":"mintedToday","inputs":[{"name":"account","type":"address","internalType":"address"}],"outputs":[{"name":"","type":"uint256","internalType":"uint256"}],"stateMutability":"view"},{"type":"function","name":"name","inputs":[],"outputs":[{"name":"","type":"string","internalType":"string"}],"stateMutability":"view"},{"type":"function","name":"symbol","inputs":[],"outputs":[{"name":"","type":"string","internalType":"string"}],"stateMutability":"view"},{"type":"function","name":"totalSupply","inputs":[],"outputs":[{"name":"","type":"uint256","internalType":"uint256"}],"stateMutability":"view"},{"type":"function","name":"transfer","inputs":[{"name":"to","type":"address","internalType":"address"},{"name":"value","type":"uint256","internalType":"uint256"}],"outputs":[{"name":"","type":"bool","internalType":"bool"}],"stateMutability":"nonpayable"},{"type":"function","name":"transferFrom","inputs":[{"name":"from","type":"address","internalType":"address"},{"name":"to","type":"address","internalType":"address"},{"name":"value","type":"uint256","internalType":"uint256"}],"outputs":[{"name":"","type":"bool","internalType":"bool"}],"stateMutability":"nonpayable"},{"type":"event","name":"Approval","inputs":[{"name":"owner","type":"address","indexed":true,"internalType":"address"},{"name":"spender","type":"address","indexed":true,"internalType":"address"},{"name":"value","type":"uint256","indexed":false,"internalType":"uint256"}],"anonymous":false},{"type":"event","name":"Transfer","inputs":[{"name":"from","type":"address","indexed":true,"internalType":"address"},{"name":"to","type":"address","indexed":true,"internalType":"address"},{"name":"value","type":"uint256","indexed":false,"internalType":"uint256"}],"anonymous":false},{"type":"error","name":"ERC20InsufficientAllowance","inputs":[{"name":"spender","type":"address","internalType":"address"},{"name":"allowance","type":"uint256","internalType":"uint256"},{"name":"needed","type":"uint256","internalType":"uint256"}]},{"type":"error","name":"ERC20InsufficientBalance","inputs":[{"name":"sender","type":"address","internalType":"address"},{"name":"balance","type":"uint256","internalType":"uint256"},{"name":"needed","type":"uint256","internalType":"uint256"}]},{"type":"error","name":"ERC20InvalidApprover","inputs":[{"name":"approver","type":"address","internalType":"address"}]},{"type":"error","name":"ERC20InvalidReceiver","inputs":[{"name":"receiver","type":"address","internalType":"address"}]},{"type":"error","name":"ERC20InvalidSender","inputs":[{"name":"sender","type":"address","internalType":"address"}]},{"type":"error","name":"ERC20InvalidSpender","inputs":[{"name":"spender","type":"address","internalType":"address"}]}],"bytecode":{"object":"0x608060405234801561000f575f80fd5b50604051806040016040528060098152602001684d6f636b205553444360b81b815250604051806040016040528060058152602001646d5553444360d81b815250816003908161005f919061010c565b50600461006c828261010c565b5050506101cb565b634e487b7160e01b5f52604160045260245ffd5b600181811c9082168061009c57607f821691505b6020821081036100ba57634e487b7160e01b5f52602260045260245ffd5b50919050565b601f82111561010757805f5260205f20601f840160051c810160208510156100e55750805b601f840160051c820191505b81811015610104575f81556001016100f1565b50505b505050565b81516001600160401b0381111561012557610125610074565b610139816101338454610088565b846100c0565b602080601f83116001811461016c575f84156101555750858301515b5f19600386901b1c1916600185901b1785556101c3565b5f85815260208120601f198616915b8281101561019a5788860151825594840194600190910190840161017b565b50858210156101b757878501515f19600388901b60f8161c191681555b505060018460011b0185555b505050505050565b6108d0806101d85f395ff3fe608060405234801561000f575f80fd5b50600436106100b1575f3560e01c806370a082311161006e57806370a082311461013557806395d89b411461015d578063a0712d6814610165578063a9059cbb1461017a578063dd62ed3e1461018d578063f6e5af42146101c5575f80fd5b806306fdde03146100b5578063095ea7b3146100d357806318160ddd146100f657806323b872dd14610108578063248ec3261461011b578063313ce56714610126575b5f80fd5b6100bd6101d8565b6040516100ca919061070b565b60405180910390f35b6100e66100e136600461075b565b610268565b60405190151581526020016100ca565b6002545b6040519081526020016100ca565b6100e6610116366004610783565b610281565b6100fa633b9aca0081565b604051600681526020016100ca565b6100fa6101433660046107bc565b6001600160a01b03165f9081526020819052604090205490565b6100bd6102a4565b6101786101733660046107dc565b6102b3565b005b6100e661018836600461075b565b61039b565b6100fa61019b3660046107f3565b6001600160a01b039182165f90815260016020908152604080832093909416825291909152205490565b6100fa6101d33660046107bc565b6103a8565b6060600380546101e790610824565b80601f016020809104026020016040519081016040528092919081815260200182805461021390610824565b801561025e5780601f106102355761010080835404028352916020019161025e565b820191905f5260205f20905b81548152906001019060200180831161024157829003601f168201915b5050505050905090565b5f336102758185856103f5565b60019150505b92915050565b5f3361028e858285610407565b610299858585610482565b506001949350505050565b6060600480546101e790610824565b5f6102c1620151804261085c565b335f9081526005602052604090205490915081146102f657335f90815260056020908152604080832084905560069091528120555b335f90815260066020526040902054633b9aca009061031690849061087b565b11156103695760405162461bcd60e51b815260206004820152601e60248201527f4d6f636b555344433a206461696c79206c696d6974206578636565646564000060448201526064015b60405180910390fd5b335f908152600660205260408120805484929061038790849061087b565b90915550610397905033836104df565b5050565b5f33610275818585610482565b5f6103b6620151804261085c565b6001600160a01b0383165f90815260056020526040902054146103da57505f919050565b506001600160a01b03165f9081526006602052604090205490565b6104028383836001610513565b505050565b6001600160a01b038381165f908152600160209081526040808320938616835292905220545f19811461047c578181101561046e57604051637dc7a0d960e11b81526001600160a01b03841660048201526024810182905260448101839052606401610360565b61047c84848484035f610513565b50505050565b6001600160a01b0383166104ab57604051634b637e8f60e11b81525f6004820152602401610360565b6001600160a01b0382166104d45760405163ec442f0560e01b81525f6004820152602401610360565b6104028383836105e5565b6001600160a01b0382166105085760405163ec442f0560e01b81525f6004820152602401610360565b6103975f83836105e5565b6001600160a01b03841661053c5760405163e602df0560e01b81525f6004820152602401610360565b6001600160a01b03831661056557604051634a1406b160e11b81525f6004820152602401610360565b6001600160a01b038085165f908152600160209081526040808320938716835292905220829055801561047c57826001600160a01b0316846001600160a01b03167f8c5be1e5ebec7d5bd14f71427d1e84f3dd0314c0f7b2291e5b200ac8c7c3b925846040516105d791815260200190565b60405180910390a350505050565b6001600160a01b03831661060f578060025f828254610604919061087b565b9091555061067f9050565b6001600160a01b0383165f90815260208190526040902054818110156106615760405163391434e360e21b81526001600160a01b03851660048201526024810182905260448101839052606401610360565b6001600160a01b0384165f9081526020819052604090209082900390555b6001600160a01b03821661069b576002805482900390556106b9565b6001600160a01b0382165f9081526020819052604090208054820190555b816001600160a01b0316836001600160a01b03167fddf252ad1be2c89b69c2b068fc378daa952ba7f163c4a11628f55a4df523b3ef836040516106fe91815260200190565b60405180910390a3505050565b602081525f82518060208401528060208501604085015e5f604082850101526040601f19601f83011684010191505092915050565b80356001600160a01b0381168114610756575f80fd5b919050565b5f806040838503121561076c575f80fd5b61077583610740565b946020939093013593505050565b5f805f60608486031215610795575f80fd5b61079e84610740565b92506107ac60208501610740565b9150604084013590509250925092565b5f602082840312156107cc575f80fd5b6107d582610740565b9392505050565b5f602082840312156107ec575f80fd5b5035919050565b5f8060408385031215610804575f80fd5b61080d83610740565b915061081b60208401610740565b90509250929050565b600181811c9082168061083857607f821691505b60208210810361085657634e487b7160e01b5f52602260045260245ffd5b50919050565b5f8261087657634e487b7160e01b5f52601260045260245ffd5b500490565b8082018082111561027b57634e487b7160e01b5f52601160045260245ffdfea2646970667358221220cc238f030c141b29f7b4c6819ffc4fd5fe9d4da02c12f0b4a1ab6ccdb2978e5a64736f6c63430008190033","linkReferences":{}},"methodIdentifiers":{"DAILY_LIMIT()":"248ec326","allowance(address,address)":"dd62ed3e","approve(address,uint256)":"095ea7b3","balanceOf(address)":"70a08231","decimals()":"313ce567","mint(uint256)":"a0712d68","mintedToday(address)":"f6e5af42","name()":"06fdde03","symbol()":"95d89b41","totalSupply()":"18160ddd","transfer(address,uint256)":"a9059cbb","transferFrom(address,address,uint256)":"23b872dd"},"id":56}